{
  "_format": "hh-sol-artifact-1",
  "contractName": "MockVRFSystem",
  "sourceName": "contracts/MockVRFSystem.sol",
  "abi": [
    {
      "anonymous": false,
      "inputs": [
        {
          "indexed": true,
          "internalType": "uint256",
          "name": "requestId",
          "type": "uint256"
        },
        {
          "indexed": true,
          "internalType": "address",
          "name": "callbackAddress",
          "type": "address"
        },
        {
          "indexed": true,
          "internalType": "uint256",
          "name": "traceId",
          "type": "uint256"
        },
        {
          "indexed": false,
          "internalType": "uint256",
          "name": "roundNumber",
          "type": "uint256"
        },
        {
          "indexed": false,
          "internalType": "uint256",
          "name": "randomNumber",
          "type": "uint256"
        }
      ],
      "name": "RandomNumberDelivered",
      "type": "event"
    },
    {
      "anonymous": false,
      "inputs": [
        {
          "indexed": true,
          "internalType": "uint256",
          "name": "requestId",
          "type": "uint256"
        },
        {
          "indexed": true,
          "internalType": "address",
          "name": "callbackAddress",
          "type": "address"
        },
        {
          "indexed": true,
          "internalType": "uint256",
          "name": "traceId",
          "type": "uint256"
        }
      ],
      "name": "RandomNumberRequested",
      "type": "event"
    },
    {
      "inputs": [
        {
          "internalType": "uint256",
          "name": "",
          "type": "uint256"
        }
      ],
      "name": "consumer",
      "outputs": [
        {
          "internalType": "address",
          "name": "",
          "type": "address"
        }
      ],
      "stateMutability": "view",
      "type": "function"
    },
    {
      "inputs": [
        {
          "internalType": "uint256",
          "name": "requestId",
          "type": "uint256"
        }
      ],
      "name": "deliverRandomNumber",
      "outputs": [],
      "stateMutability": "nonpayable",
      "type": "function"
    },
    {
      "inputs": [],
      "name": "nextRequestId",
      "outputs": [
        {
          "internalType": "uint256",
          "name": "",
          "type": "uint256"
        }
      ],
      "stateMutability": "view",
      "type": "function"
    },
    {
      "inputs": [
        {
          "internalType": "uint256",
          "name": "traceId",
          "type": "uint256"
        }
      ],
      "name": "requestRandomNumberWithTraceId",
      "outputs": [
        {
          "internalType": "uint256",
          "name": "requestId",
          "type": "uint256"
        }
      ],
      "stateMutability": "nonpayable",
      "type": "function"
    },
    {
      "inputs": [
        {
          "internalType": "uint256",
          "name": "",
          "type": "uint256"
        }
      ],
      "name": "traceIdOf",
      "outputs": [
        {
          "internalType": "uint256",
          "name": "",
          "type": "uint256"
        }
      ],
      "stateMutability": "view",
      "type": "function"
    }
  ],
  "bytecode": "0x6080604052348015600f57600080fd5b506107ca8061001f6000396000f3fe608060405234801561001057600080fd5b50600436106100575760003560e01c80636a84a9851461005c578063a0a4936f1461007a578063c0be1df714610096578063e3914472146100c6578063ed2c45a4146100f6575b600080fd5b610064610126565b60405161007191906104eb565b60405180910390f35b610094600480360381019061008f9190610537565b61012c565b005b6100b060048036038101906100ab9190610537565b61035c565b6040516100bd91906104eb565b60405180910390f35b6100e060048036038101906100db9190610537565b610374565b6040516100ed91906104eb565b60405180910390f35b610110600480360381019061010b9190610537565b61049f565b60405161011d91906105a5565b60405180910390f35b60005481565b60006001600083815260200190815260200160002060009054906101000a900473ffffffffffffffffffffffffffffffffffffffff169050600073ffffffffffffffffffffffffffffffffffffffff168173ffffffffffffffffffffffffffffffffffffffff16036101d3576040517f08c379a00000000000000000000000000000000000000000000000000000000081526004016101ca9061061d565b60405180910390fd5b600060026000848152602001908152602001600020549050600060036000858152602001908152602001600020549050600060046000868152602001908152602001600020549050828473ffffffffffffffffffffffffffffffffffffffff16867ff8604b0cd25e2913a59ecb707311c974ed91bca81be78e0df4b9afaa5b3a6a48848660405161026592919061063d565b60405180910390a48373ffffffffffffffffffffffffffffffffffffffff16638f561acc86846040518363ffffffff1660e01b81526004016102a892919061063d565b600060405180830381600087803b1580156102c257600080fd5b505af11580156102d6573d6000803e3d6000fd5b505050506001600086815260200190815260200160002060006101000a81549073ffffffffffffffffffffffffffffffffffffffff02191690556002600086815260200190815260200160002060009055600360008681526020019081526020016000206000905560046000868152602001908152602001600020600090555050505050565b60026020528060005260406000206000915090505481565b6000806000815461038490610695565b9190508190559050336001600083815260200190815260200160002060006101000a81548173ffffffffffffffffffffffffffffffffffffffff021916908373ffffffffffffffffffffffffffffffffffffffff160217905550816002600083815260200190815260200160002081905550436004600083815260200190815260200160002081905550424382336040516020016104259493929190610746565b6040516020818303038152906040528051906020012060001c6003600083815260200190815260200160002081905550813373ffffffffffffffffffffffffffffffffffffffff16827f0412f12636343f005eb6a020fa429ce7c86c3cfa2b4ebd9f6a00a059790350b660405160405180910390a4919050565b60016020528060005260406000206000915054906101000a900473ffffffffffffffffffffffffffffffffffffffff1681565b6000819050919050565b6104e5816104d2565b82525050565b600060208201905061050060008301846104dc565b92915050565b600080fd5b610514816104d2565b811461051f57600080fd5b50565b6000813590506105318161050b565b92915050565b60006020828403121561054d5761054c610506565b5b600061055b84828501610522565b91505092915050565b600073ffffffffffffffffffffffffffffffffffffffff82169050919050565b600061058f82610564565b9050919050565b61059f81610584565b82525050565b60006020820190506105ba6000830184610596565b92915050565b600082825260208201905092915050565b7f496e76616c696420726571756573744964000000000000000000000000000000600082015250565b60006106076011836105c0565b9150610612826105d1565b602082019050919050565b60006020820190508181036000830152610636816105fa565b9050919050565b600060408201905061065260008301856104dc565b61065f60208301846104dc565b9392505050565b7f4e487b7100000000000000000000000000000000000000000000000000000000600052601160045260246000fd5b60006106a0826104d2565b91507fffffffffffffffffffffffffffffffffffffffffffffffffffffffffffffffff82036106d2576106d1610666565b5b600182019050919050565b6000819050919050565b6106f86106f3826104d2565b6106dd565b82525050565b60008160601b9050919050565b6000610716826106fe565b9050919050565b60006107288261070b565b9050919050565b61074061073b82610584565b61071d565b82525050565b600061075282876106e7565b60208201915061076282866106e7565b60208201915061077282856106e7565b602082019150610782828461072f565b6014820191508190509594505050505056fea264697066735822122003d435e0f05481e95f4dbf67524d590bc73f55fae5a3be0365af9f00582e2b1e64736f6c634300081c0033",
  "linkReferences": {},
  "deployedLinkReferences": {}
}