{
  "_format": "hh-sol-artifact-1",
  "contractName": "RoulettePot",
  "sourceName": "contracts/RoulettePot.sol",
  "abi": [
    {
      "inputs": [],
      "name": "InvalidInitialization",
      "type": "error"
    },
    {
      "inputs": [],
      "name": "NotInitializing",
      "type": "error"
    },
    {
      "inputs": [],
      "name": "ReentrancyGuardReentrantCall",
      "type": "error"
    },
    {
      "anonymous": false,
      "inputs": [
        {
          "indexed": true,
          "internalType": "address",
          "name": "player",
          "type": "address"
        },
        {
          "indexed": false,
          "internalType": "uint256",
          "name": "amount",
          "type": "uint256"
        }
      ],
      "name": "Deposit",
      "type": "event"
    },
    {
      "anonymous": false,
      "inputs": [
        {
          "indexed": false,
          "internalType": "uint64",
          "name": "version",
          "type": "uint64"
        }
      ],
      "name": "Initialized",
      "type": "event"
    },
    {
      "inputs": [],
      "name": "DURATION",
      "outputs": [
        {
          "internalType": "uint32",
          "name": "",
          "type": "uint32"
        }
      ],
      "stateMutability": "view",
      "type": "function"
    },
    {
      "inputs": [],
      "name": "HOUSE_BPS",
      "outputs": [
        {
          "internalType": "uint16",
          "name": "",
          "type": "uint16"
        }
      ],
      "stateMutability": "view",
      "type": "function"
    },
    {
      "inputs": [],
      "name": "claim",
      "outputs": [],
      "stateMutability": "nonpayable",
      "type": "function"
    },
    {
      "inputs": [],
      "name": "closeRound",
      "outputs": [],
      "stateMutability": "nonpayable",
      "type": "function"
    },
    {
      "inputs": [],
      "name": "currentRoundId",
      "outputs": [
        {
          "internalType": "uint256",
          "name": "",
          "type": "uint256"
        }
      ],
      "stateMutability": "view",
      "type": "function"
    },
    {
      "inputs": [],
      "name": "deposit",
      "outputs": [],
      "stateMutability": "payable",
      "type": "function"
    },
    {
      "inputs": [],
      "name": "feeRecipient",
      "outputs": [
        {
          "internalType": "address",
          "name": "",
          "type": "address"
        }
      ],
      "stateMutability": "view",
      "type": "function"
    },
    {
      "inputs": [
        {
          "internalType": "address",
          "name": "vrfSystem_",
          "type": "address"
        },
        {
          "internalType": "address",
          "name": "feeRecipient_",
          "type": "address"
        }
      ],
      "name": "initialize",
      "outputs": [],
      "stateMutability": "nonpayable",
      "type": "function"
    },
    {
      "inputs": [
        {
          "internalType": "uint256",
          "name": "requestId",
          "type": "uint256"
        },
        {
          "internalType": "uint256",
          "name": "randomNumber",
          "type": "uint256"
        }
      ],
      "name": "randomNumberCallback",
      "outputs": [],
      "stateMutability": "nonpayable",
      "type": "function"
    },
    {
      "inputs": [
        {
          "internalType": "uint256",
          "name": "",
          "type": "uint256"
        }
      ],
      "name": "requestIdToRound",
      "outputs": [
        {
          "internalType": "uint256",
          "name": "",
          "type": "uint256"
        }
      ],
      "stateMutability": "view",
      "type": "function"
    },
    {
      "inputs": [
        {
          "internalType": "uint256",
          "name": "",
          "type": "uint256"
        }
      ],
      "name": "rounds",
      "outputs": [
        {
          "internalType": "enum RoulettePot.RoundState",
          "name": "state",
          "type": "uint8"
        },
        {
          "internalType": "uint64",
          "name": "startTime",
          "type": "uint64"
        },
        {
          "internalType": "uint256",
          "name": "total",
          "type": "uint256"
        },
        {
          "internalType": "address",
          "name": "winner",
          "type": "address"
        }
      ],
      "stateMutability": "view",
      "type": "function"
    },
    {
      "inputs": [],
      "name": "vrfSystem",
      "outputs": [
        {
          "internalType": "address",
          "name": "",
          "type": "address"
        }
      ],
      "stateMutability": "view",
      "type": "function"
    },
    {
      "inputs": [
        {
          "internalType": "address",
          "name": "",
          "type": "address"
        }
      ],
      "name": "withdrawable",
      "outputs": [
        {
          "internalType": "uint256",
          "name": "",
          "type": "uint256"
        }
      ],
      "stateMutability": "view",
      "type": "function"
    }
  ],
  "bytecode": "0x6080604052348015600f57600080fd5b50611c278061001f6000396000f3fe6080604052600436106100c25760003560e01c80638f561acc1161007f578063d0e30db011610059578063d0e30db01461026b578063d5e213d514610275578063e278fe6f146102a0578063f436aa66146102b7576100c2565b80638f561acc146101da5780639cbe5efd14610203578063ce513b6f1461022e576100c2565b80631be05289146100c75780634077604b146100f2578063469048401461012f578063485cc9551461015a5780634e71d92d146101835780638c65c81f1461019a575b600080fd5b3480156100d357600080fd5b506100dc6102e2565b6040516100e9919061122c565b60405180910390f35b3480156100fe57600080fd5b5061011960048036038101906101149190611282565b6102e8565b60405161012691906112be565b60405180910390f35b34801561013b57600080fd5b50610144610300565b604051610151919061131a565b60405180910390f35b34801561016657600080fd5b50610181600480360381019061017c9190611361565b610326565b005b34801561018f57600080fd5b506101986105bc565b005b3480156101a657600080fd5b506101c160048036038101906101bc9190611282565b610748565b6040516101d1949392919061143b565b60405180910390f35b3480156101e657600080fd5b5061020160048036038101906101fc9190611480565b6107b9565b005b34801561020f57600080fd5b50610218610bf4565b60405161022591906112be565b60405180910390f35b34801561023a57600080fd5b50610255600480360381019061025091906114c0565b610bfa565b60405161026291906112be565b60405180910390f35b610273610c12565b005b34801561028157600080fd5b5061028a610e84565b604051610297919061150a565b60405180910390f35b3480156102ac57600080fd5b506102b5610e89565b005b3480156102c357600080fd5b506102cc61107f565b6040516102d9919061131a565b60405180910390f35b61012c81565b60036020528060005260406000206000915090505481565b600160009054906101000a900473ffffffffffffffffffffffffffffffffffffffff1681565b60006103306110a3565b905060008160000160089054906101000a900460ff1615905060008260000160009054906101000a900467ffffffffffffffff1690506000808267ffffffffffffffff1614801561037e5750825b9050600060018367ffffffffffffffff161480156103b3575060003073ffffffffffffffffffffffffffffffffffffffff163b145b9050811580156103c1575080155b156103f8576040517ff92ee8a900000000000000000000000000000000000000000000000000000000815260040160405180910390fd5b60018560000160006101000a81548167ffffffffffffffff021916908367ffffffffffffffff16021790555083156104485760018560000160086101000a81548160ff0219169083151502179055505b6104506110b7565b866000806101000a81548173ffffffffffffffffffffffffffffffffffffffff021916908373ffffffffffffffffffffffffffffffffffffffff16021790555085600160006101000a81548173ffffffffffffffffffffffffffffffffffffffff021916908373ffffffffffffffffffffffffffffffffffffffff16021790555060016004819055506000600260006001815260200190815260200160002060000160006101000a81548160ff02191690836002811115610514576105136113a1565b5b021790555042600260006001815260200190815260200160002060000160016101000a81548167ffffffffffffffff021916908367ffffffffffffffff16021790555083156105b35760008560000160086101000a81548160ff0219169083151502179055507fc7f505b2f371ae2175ee4913f4499e1f2633a7b5936321eed1cdaeb6115181d260016040516105aa919061156a565b60405180910390a15b50505050505050565b6105c46110c9565b6000600560003373ffffffffffffffffffffffffffffffffffffffff1673ffffffffffffffffffffffffffffffffffffffff1681526020019081526020016000205490506000811161064b576040517f08c379a0000000000000000000000000000000000000000000000000000000008152600401610642906115e2565b60405180910390fd5b6000600560003373ffffffffffffffffffffffffffffffffffffffff1673ffffffffffffffffffffffffffffffffffffffff1681526020019081526020016000208190555060003373ffffffffffffffffffffffffffffffffffffffff16826040516106b690611633565b60006040518083038185875af1925050503d80600081146106f3576040519150601f19603f3d011682016040523d82523d6000602084013e6106f8565b606091505b505090508061073c576040517f08c379a000000000000000000000000000000000000000000000000000000000815260040161073390611694565b60405180910390fd5b5050610746611120565b565b60026020528060005260406000206000915090508060000160009054906101000a900460ff16908060000160019054906101000a900467ffffffffffffffff16908060020154908060030160009054906101000a900473ffffffffffffffffffffffffffffffffffffffff16905084565b6107c16110c9565b60008054906101000a900473ffffffffffffffffffffffffffffffffffffffff1673ffffffffffffffffffffffffffffffffffffffff163373ffffffffffffffffffffffffffffffffffffffff161461084f576040517f08c379a000000000000000000000000000000000000000000000000000000000815260040161084690611700565b60405180910390fd5b600060036000848152602001908152602001600020549050600060026000838152602001908152602001600020905060016002811115610892576108916113a1565b5b8160000160009054906101000a900460ff1660028111156108b6576108b56113a1565b5b146108f6576040517f08c379a00000000000000000000000000000000000000000000000000000000081526004016108ed9061176c565b60405180910390fd5b600081600201548461090891906117bb565b90506000805b83600101805490508110156109f657836001018181548110610933576109326117ec565b5b90600052602060002090600202016001015482610950919061184a565b9150818310156109e9578360010181815481106109705761096f6117ec565b5b906000526020600020906002020160000160009054906101000a900473ffffffffffffffffffffffffffffffffffffffff168460030160006101000a81548173ffffffffffffffffffffffffffffffffffffffff021916908373ffffffffffffffffffffffffffffffffffffffff1602179055506109f6565b808060010191505061090e565b506000612710603261ffff168560020154610a11919061187e565b610a1b91906118c0565b9050808460020154610a2d91906118f1565b600560008660030160009054906101000a900473ffffffffffffffffffffffffffffffffffffffff1673ffffffffffffffffffffffffffffffffffffffff1673ffffffffffffffffffffffffffffffffffffffff1681526020019081526020016000206000828254610a9f919061184a565b925050819055508060056000600160009054906101000a900473ffffffffffffffffffffffffffffffffffffffff1673ffffffffffffffffffffffffffffffffffffffff1673ffffffffffffffffffffffffffffffffffffffff1681526020019081526020016000206000828254610b17919061184a565b9250508190555060028460000160006101000a81548160ff02191690836002811115610b4657610b456113a1565b5b021790555060046000815480929190610b5e90611925565b9190505550600060026000600454815260200190815260200160002060000160006101000a81548160ff02191690836002811115610b9f57610b9e6113a1565b5b02179055504260026000600454815260200190815260200160002060000160016101000a81548167ffffffffffffffff021916908367ffffffffffffffff1602179055505050505050610bf0611120565b5050565b60045481565b60056020528060005260406000206000915090505481565b610c1a6110c9565b6000600260006004548152602001908152602001600020905060006002811115610c4757610c466113a1565b5b8160000160009054906101000a900460ff166002811115610c6b57610c6a6113a1565b5b14610cab576040517f08c379a0000000000000000000000000000000000000000000000000000000008152600401610ca2906119b9565b60405180910390fd5b61012c63ffffffff168160000160019054906101000a900467ffffffffffffffff16610cd791906119d9565b67ffffffffffffffff164210610d22576040517f08c379a0000000000000000000000000000000000000000000000000000000008152600401610d1990611a61565b60405180910390fd5b60003411610d65576040517f08c379a0000000000000000000000000000000000000000000000000000000008152600401610d5c90611acd565b60405180910390fd5b8060010160405180604001604052803373ffffffffffffffffffffffffffffffffffffffff16815260200134815250908060018154018082558091505060019003906000526020600020906002020160009091909190915060008201518160000160006101000a81548173ffffffffffffffffffffffffffffffffffffffff021916908373ffffffffffffffffffffffffffffffffffffffff16021790555060208201518160010155505034816002016000828254610e24919061184a565b925050819055503373ffffffffffffffffffffffffffffffffffffffff167fe1fffcc4923d04b559f4d29a8bfc6cda04eb5b0d3c460751c2402c5c5cc9109c34604051610e7191906112be565b60405180910390a250610e82611120565b565b603281565b6000600260006004548152602001908152602001600020905060006002811115610eb657610eb56113a1565b5b8160000160009054906101000a900460ff166002811115610eda57610ed96113a1565b5b14610f1a576040517f08c379a0000000000000000000000000000000000000000000000000000000008152600401610f11906119b9565b60405180910390fd5b61012c63ffffffff168160000160019054906101000a900467ffffffffffffffff16610f4691906119d9565b67ffffffffffffffff16421015610f92576040517f08c379a0000000000000000000000000000000000000000000000000000000008152600401610f8990611b39565b60405180910390fd5b60018160000160006101000a81548160ff02191690836002811115610fba57610fb96113a1565b5b021790555060008060009054906101000a900473ffffffffffffffffffffffffffffffffffffffff1673ffffffffffffffffffffffffffffffffffffffff1663e391447260006040518263ffffffff1660e01b815260040161101c9190611b94565b6020604051808303816000875af115801561103b573d6000803e3d6000fd5b505050506040513d601f19601f8201168201806040525081019061105f9190611bc4565b905060045460036000838152602001908152602001600020819055505050565b60008054906101000a900473ffffffffffffffffffffffffffffffffffffffff1681565b6000806110ae611139565b90508091505090565b6110bf611164565b6110c76111a4565b565b60006110d36111c5565b90506002816000015403611113576040517f3ee5aeb500000000000000000000000000000000000000000000000000000000815260040160405180910390fd5b6002816000018190555050565b600061112a6111c5565b90506001816000018190555050565b60007ff0c57e16840df040f15088dc2f81fe391c3923bec73e23a9662efc9c229c6a0060001b905090565b61116c6111ed565b6111a2576040517fd7e6bcf800000000000000000000000000000000000000000000000000000000815260040160405180910390fd5b565b6111ac611164565b60006111b66111c5565b90506001816000018190555050565b60007f9b779b17422d0df92223018b32b4d1fa46e071723d6817e2486d003becc55f00905090565b60006111f76110a3565b60000160089054906101000a900460ff16905090565b600063ffffffff82169050919050565b6112268161120d565b82525050565b6000602082019050611241600083018461121d565b92915050565b600080fd5b6000819050919050565b61125f8161124c565b811461126a57600080fd5b50565b60008135905061127c81611256565b92915050565b60006020828403121561129857611297611247565b5b60006112a68482850161126d565b91505092915050565b6112b88161124c565b82525050565b60006020820190506112d360008301846112af565b92915050565b600073ffffffffffffffffffffffffffffffffffffffff82169050919050565b6000611304826112d9565b9050919050565b611314816112f9565b82525050565b600060208201905061132f600083018461130b565b92915050565b61133e816112f9565b811461134957600080fd5b50565b60008135905061135b81611335565b92915050565b6000806040838503121561137857611377611247565b5b60006113868582860161134c565b92505060206113978582860161134c565b9150509250929050565b7f4e487b7100000000000000000000000000000000000000000000000000000000600052602160045260246000fd5b600381106113e1576113e06113a1565b5b50565b60008190506113f2826113d0565b919050565b6000611402826113e4565b9050919050565b611412816113f7565b82525050565b600067ffffffffffffffff82169050919050565b61143581611418565b82525050565b60006080820190506114506000830187611409565b61145d602083018661142c565b61146a60408301856112af565b611477606083018461130b565b95945050505050565b6000806040838503121561149757611496611247565b5b60006114a58582860161126d565b92505060206114b68582860161126d565b9150509250929050565b6000602082840312156114d6576114d5611247565b5b60006114e48482850161134c565b91505092915050565b600061ffff82169050919050565b611504816114ed565b82525050565b600060208201905061151f60008301846114fb565b92915050565b6000819050919050565b6000819050919050565b600061155461154f61154a84611525565b61152f565b611418565b9050919050565b61156481611539565b82525050565b600060208201905061157f600083018461155b565b92915050565b600082825260208201905092915050565b7f4e6f7468696e6720746f20636c61696d00000000000000000000000000000000600082015250565b60006115cc601083611585565b91506115d782611596565b602082019050919050565b600060208201905081810360008301526115fb816115bf565b9050919050565b600081905092915050565b50565b600061161d600083611602565b91506116288261160d565b600082019050919050565b600061163e82611610565b9150819050919050565b7f5472616e73666572206661696c65640000000000000000000000000000000000600082015250565b600061167e600f83611585565b915061168982611648565b602082019050919050565b600060208201905081810360008301526116ad81611671565b9050919050565b7f556e617574686f72697a65642063616c6c657200000000000000000000000000600082015250565b60006116ea601383611585565b91506116f5826116b4565b602082019050919050565b60006020820190508181036000830152611719816116dd565b9050919050565b7f496e76616c696420726f756e6420737461746500000000000000000000000000600082015250565b6000611756601383611585565b915061176182611720565b602082019050919050565b6000602082019050818103600083015261178581611749565b9050919050565b7f4e487b7100000000000000000000000000000000000000000000000000000000600052601260045260246000fd5b60006117c68261124c565b91506117d18361124c565b9250826117e1576117e061178c565b5b828206905092915050565b7f4e487b7100000000000000000000000000000000000000000000000000000000600052603260045260246000fd5b7f4e487b7100000000000000000000000000000000000000000000000000000000600052601160045260246000fd5b60006118558261124c565b91506118608361124c565b92508282019050808211156118785761187761181b565b5b92915050565b60006118898261124c565b91506118948361124c565b92508282026118a28161124c565b915082820484148315176118b9576118b861181b565b5b5092915050565b60006118cb8261124c565b91506118d68361124c565b9250826118e6576118e561178c565b5b828204905092915050565b60006118fc8261124c565b91506119078361124c565b925082820390508181111561191f5761191e61181b565b5b92915050565b60006119308261124c565b91507fffffffffffffffffffffffffffffffffffffffffffffffffffffffffffffffff82036119625761196161181b565b5b600182019050919050565b7f526f756e64206e6f74206f70656e000000000000000000000000000000000000600082015250565b60006119a3600e83611585565b91506119ae8261196d565b602082019050919050565b600060208201905081810360008301526119d281611996565b9050919050565b60006119e482611418565b91506119ef83611418565b9250828201905067ffffffffffffffff811115611a0f57611a0e61181b565b5b92915050565b7f4465706f73697420706572696f64206f76657200000000000000000000000000600082015250565b6000611a4b601383611585565b9150611a5682611a15565b602082019050919050565b60006020820190508181036000830152611a7a81611a3e565b9050919050565b7f5a65726f206465706f7369740000000000000000000000000000000000000000600082015250565b6000611ab7600c83611585565b9150611ac282611a81565b602082019050919050565b60006020820190508181036000830152611ae681611aaa565b9050919050565b7f546f6f206561726c7920746f20636c6f73650000000000000000000000000000600082015250565b6000611b23601283611585565b9150611b2e82611aed565b602082019050919050565b60006020820190508181036000830152611b5281611b16565b9050919050565b6000819050919050565b6000611b7e611b79611b7484611b59565b61152f565b61124c565b9050919050565b611b8e81611b63565b82525050565b6000602082019050611ba96000830184611b85565b92915050565b600081519050611bbe81611256565b92915050565b600060208284031215611bda57611bd9611247565b5b6000611be884828501611baf565b9150509291505056fea2646970667358221220c1f923b5200ba0ffb327af4c543ddba6df1606802ba851194a1a6e70027eef2b64736f6c634300081c0033",
  "linkReferences": {},
  "deployedLinkReferences": {}
}